:10006500E4F50AF50BA2B0E4FE33FFA2B1E4FC33DC
:10007500FDEF701D050BE50B7002050A640A450AC4
:100085007004F50AF50BEF4E7007A2B0FE33FF8042
:10009500F5ED4C7023E50B150B7002150AC3E50A47
:1000A500648094805006750A00750B09ED4C700844
:1000B500A2B1337C00FD80F4AF0BAE0A12000380C1
:0100C500A496
:10000300EE705BEFB40A005055900013F828287384
:1000130002003102003602003B02004002004502AA
:10002300004A02004F02005402005902005E75A00C
:1000330040802B75A079802675A024802175A0307F
:10004300801C75A019801775A012801275A00280FC
:100053000D75A0788008E4F5A0800375A01075A045
:02006300FF227A
:030000000200C635
:0C00C600787FE4F6D8FD75810B02006520
:00000001FF
