:10000300751A00751B01751C00751D02751E0075A0
:100013001F047520007521087522007523107524AF
:1000230000752520752600752740752800752980E1
:10003300750A00750BFC750C00750DFC750E0075CB
:100043000FFCE4F510F511F512F513F5147515FC15
:10005300F5167517FCF5187519FC7F017E00E4FD94
:10006300FCEF25E02418F808E6F5B0EF25E02408B6
:10007300F808E6F5A00DBD00010CED640A4C70E133
:0D0083000FBF00010EEF64094E70D380CD59
:030000000200906B
:0C009000787FE4F6D8FD7581270200039C
:00000001FF
