:0C000E000A134079243019120278001007
:0B01FA00E4F590F580F5A075B0FF2241
:1001DC00758911758CFD758A18758D3C758BB0D22F
:0E01EC00ABD2A9D2AFC28DC28FD28CD28E22DE
:03001B0002019F40
:10019F00C0E0C0D0C28EC28F758D3C758BB0050A82
:1001AF00E50AB41421750A000509E509B43C057583
:1001BF000900050DE50DB43C05750D00050CE50CAA
:0D01CF00B41803750C00D28ED0D0D0E032F1
:03000B0002001ED2
:10001E00C0E0C0F0C0D075D000C000C28CC28D75DB
:10002E008CFD758A181508E508B401157580FFE575
:10003E000C75F00A842413F8E6F58075A001750896
:10004E0007E508B402147580FFE50C75F00A847498
:10005E001325F0F8E6F58075A002E508B4031275D5
:10006E0080FFE50D75F00A842413F8E6F58075A07F
:10007E0004E508B404147580FFE50D75F00A847468
:10008E001325F0F8E6F58075A008E508B40512759D
:10009E0080FFE50975F00A842413F8E6F58075A053
:1000AE0010E508B406147580FFE50975F00A84742E
:1000BE001325F0F8E6F58075A020D28CD000D0D0B4
:0500CE00D0F0D0E0328B
:10015F001201FAE4F50BF50A7508071201DC20B05D
:10016F000A050CE50CB41803E4F50C30B0FD20B112
:10017F000A050DE50DB43C03E4F50D30B1FD20B2D9
:10018F000A0509E509B43C03E4F50920B2D080FB68
:030000000200D328
:0C00D300787FE4F6D8FD75811C02011A4C
:1000DF0002015FE493A3F8E493A34003F68001F2D7
:1000EF0008DFF48029E493A3F85407240CC8C33322
:1000FF00C4540F4420C8834004F456800146F6DFF1
:10010F00E4800B010204081020408090000EE47E72
:10011F00019360BCA3FF543F30E509541FFEE493E5
:10012F00A360010ECF54C025E060A840B8E493A3AC
:10013F00FAE493A3F8E493A3C8C582C8CAC583CAD7
:10014F00F0A3C8C582C8CAC583CADFE9DEE780BE8F
:01001A0000E5
:00000001FF
