:10000300750C03750DE8E4F5A0F508F50912004C2D
:100013001200810509E50970020508C39408E50883
:100023006480948040E7750800750907D3E5099457
:1000330000E5086480948040CD12004C120081E5F5
:0900430009150970E7150880E3B6
:060081008FA0AF0DAE0CD4
:10008700E4FDFCC3ED9FEE6480F8EC6480985007B4
:070097000DBD00010C80EC1F
:01009E00223F
:08004C00AD09AC087F027E0043
:080054008E0E8F0F8C108D1130
:10005C007F017E00E4FBFAC3EB9511E5106480F898
:10006C00EA648098500EAC0EAD0F12009F0BBB00D3
:04007C00010A80E312
:01008000225D
:030000000200B14A
:0C00B100787FE4F6D8FD75811102000391
:10009F00EF8DF0A4A8F0CF8CF0A428CE8DF0A42E75
:0200AF00FE222F
:00000001FF
