:06000300041600000000DD
:03001B000203F5E8
:1003F500C0E0C0F0C083C082C0D075D000C000C0CE
:1004050001C002C003C004C005C006C007E5192429
:1004150001F519E43518F518E43517F517E435161F
:10042500F516E47F207E4EFDFCAB19AA18A917A886
:1004350016C312038F7030053DE53D7002053C750E
:100445001900751800751700751600643C453C7059
:1004550016F53CF53D051DE51D7002051C643C4582
:100465001C7004F51CF51DD007D006D005D004D0AE
:1004750003D002D001D000D0D0D082D083D0F0D02C
:02048500E03263
:10001E00E589540F4420F589758D9C858D8BD2AB67
:10002E00D28ED2AF751E00751F0875200075210483
:10003E00752200752302752400752501E4F526F559
:10004E0027F534F535E53525E02408F8E4F608F60D
:10005E000535E535700205346404453470E7AE3C71
:10006E00AF3D7C007D0A1203598C288D29AE3CAF22
:10007E003D7C007D0A1203598E2A8F2BAE1CAF1DBC
:10008E007C007D0A1203598C2C8D2DAE1CAF1D7C6D
:10009E00007D0A1203598E2E8F2FE52745267046B6
:1000AE00F534F535E4F536F537AF35EF25E0241E9A
:1000BE00F808E6F5A0EF25E024281205240537E51B
:1000CE003770020536C3940AE5366480948040D9B1
:1000DE000535E53570020534C39404E53464809427
:1000EE008040C1020176AE3CAF3D7C007D02120322
:1000FE0059ED4C7040F534F535E4F536F537E53508
:10010E0065317004E534653060031205130537E57B
:10011E003770020536C3940AE5366480948040DE5B
:10012E000535E53570020534C39404E534648094D6
:10013E008040C68033E4F534F535E4F536F53712F4
:10014E0005130537E53770020536C3940AE53664A4
:10015E0080948040EA0535E53570020534C3940479
:10016E00E5346480948040D2A2B0E433753A00F551
:10017E003B453A7022E51145107006F510F51180D9
:10018E0006751000751101E53B453A700AA2B033B1
:10019E00753A00F53B80F0A2B4E433751400F51502
:1001AE004514704BE5274526700BF526752701F58E
:1001BE0030F531802AE4F526F527AE0AAF0BFC7D2B
:1001CE000A120347E5092FF53DE5083EF53CAE0E54
:1001DE00AF0F120347E50D2FF51DE50C3EF51CE59F
:1001EE00154514700AA2B433751400F51580F0A2EB
:1001FE00B1E433753800F539453870280531E531ED
:10020E0070020530D39404E530648094804005E498
:10021E00F530F531E5394538700AA2B1337538003D
:10022E00F53980F0A2B2E433751200F51345126071
:10023E00030202C1E53125E02408F80806E618702D
:10024E000106E530705DE53114601E14602F1460F8
:10025E00402403704ED3E5099409E5086480948028
:10026E004041E4F508F509803AD3E50B9405E50A1B
:10027E0064809480402DE4F50AF50B8026D3E50DBD
:10028E009409E50C648094804019E4F50CF50D801A
:10029E0012D3E50F9405E50E648094804005E4F5D5
:1002AE000EF50FE5134512700AA2B233751200F562
:1002BE001380F0A2B3E433753E00F53F453E600374
:1002CE0002006CE53125E02408F808E616187001E6
:1002DE0016E5307051E53114601B14602914603737
:1002EE0024037042C3E50864809480503975080079
:1002FE007509098031C3E50A648094805028750A17
:10030E0000750B058020C3E50C6480948050177532
:10031E000C00750D09800FC3E50E648094805006A5
:10032E00750E00750F05E53F453E600302006CA299
:09033E00B333753E00F53F80ED7C
:10051300AF35EF25E0241EF808E6F5A0EF25E0242B
:0705230008F8E6FE08E6FF00
:10052A00EE705BEFB40A00505590053AF82828732C
:10053A0002055802055D02056202056702056C02A2
:10054A00057102057602057B020580020585759014
:10055A0040802B7590798026759024802175903083
:10056A00801C759019801775901280127590028000
:10057A000D7590788008E4F5908003759010759059
:02058A00FF224E
:0300000002048770
:0C048700787FE4F6D8FD75813F0204CEBA
:10034700EF8DF0A4A8F0CF8CF0A428CE8DF0A42ECA
:02035700FE2284
:10035900C2D5EC30E709B2D5E4C39DFDE49CFCEEBF
:1003690030E715B2D5E4C39FFFE49EFE1203A0C394
:10037900E49DFDE49CFC80031203A030D507C3E48F
:060389009FFFE49EFE222E
:10038F00EB9FF5F0EA9E42F0E99D42F0E89C45F0C4
:01039F00223B
:1004930002001EE493A3F8E493A34003F68001F261
:1004A30008DFF48029E493A3F85407240CC8C3336A
:1004B300C4540F4420C8834004F456800146F6DF39
:1004C300E4800B0102040810204080900003E47EC6
:1004D300019360BCA3FF543F30E509541FFEE4932E
:1004E300A360010ECF54C025E060A840B8E493A3F5
:1004F300FAE493A3F8E493A3C8C582C8CAC583CA20
:10050300F0A3C8C582C8CAC583CADFE9DEE780BED7
:0100090000F6
:1003A000BC000BBE0029EF8DF084FFADF022E4CC41
:1003B000F875F008EF2FFFEE33FEEC33FCEE9DEC0A
:1003C000984005FCEE9DFE0FD5F0E9E4CEFD22ED50
:1003D000F8F5F0EE8420D21CFEADF075F008EF2F9A
:1003E000FFED33FD4007985006D5F0F222C398FD8B
:0503F0000FD5F0EA2228
:00000001FF
