:10000300C2B0E4F50EF50FA290FC33FD7012F50EAD
:10001300750F01C2B0ED4C7007A290FC33FD80F563
:10002300E50F6401450E70DAA2B73364017002D2A2
:10003300B0A280E433750800F509A281E433750AA0
:1000430000F50BA282E433750C00F50DA283E4FCEA
:1000530033FDE5094508701CEF4E7005FE7F0180F6
:1000630003E4FEFFE5094508700AA2803375080022
:10007300F50980F0E50B450A701EEF64014E70052B
:10008300FE7F028003E4FEFFE50B450A700AA281AE
:1000930033750A00F50B80F0E50D450C701EEF6417
:1000A300024E7005FE7F038003E4FEFFE50D450C61
:1000B300700AA28233750C00F50D80F0ED4C7019B7
:1000C300EF64034E7005FE7F048003E4FEFFED4CF6
:1000D3007007A283FC33FD80F5EF64044E600302D6
:0B00E3000023C2B0F50EF50F02002351
:030000000200EE0D
:0C00EE00787FE4F6D8FD75810F02000356
:00000001FF
