:030000000209777B
:0C097700787FE4F6D8FD75810A0208457F
:1008ED002048656C6C6F0020484F2056414E204EBD
:0E08FD00484154002044545654204B343300DC
:10095300E4FDFCC3ED9FEC9E50070DBD00010C8030
:01096300F2A1
:010964002270
:1008AD00E4FDFCC3ED9FEC9E5015E4FBFA0BBB0081
:0F08BD00010AEB647D4A70F50DBD00010C80E46B
:0108CC002209
:0309400012090B8E
:10094300D2927F037E00120953C2927F320209536F
:10090B00EF139284EFC313139285EF1313543F131A
:0C091B009286EF131313541F13928722CF
:10096500AB07EBC4540FFF120940AF0312090B028A
:02097500094334
:0C0983007F011209657F0A7E0002095303
:10080000E4FF12090B7F147E001208ADC290C29162
:100810007F031209407F057E001208AD1209437F55
:10082000647E001209531209437F0212090B120958
:10083000437F281209657F0C1209657F061209653E
:050840007F01020965C3
:1008CD00ED7006EF2480FA8004EF24C0FA7FE87EF5
:1008DD0003120953AF021209657F327E00020953DC
:08098F00D290120965C290220A
:10088A008B088A09890AAB08AA09A90A120927FF4B
:10089A00601012098F7401250AF50AE43509F50971
:0308AA0080E422C5
:100845001208007F147E001208AD7BFF7A0879ED4F
:1008550012088A7FE87E031208AD120983E4FDFFC2
:100865001208CD7BFF7A0879F412088A7FE87E03A7
:100875001208AD7D01E4FF1208CD7BFF7A097901ED
:0508850012088A80FE4C
:10092700BB010689828A83E0225002E722BBFE02CE
:09093700E32289828A83E4932201
:00000001FF
