:030000000209D919
:0C09D900787FE4F6D8FD75810B02084918
:1009050058494E204348414F006469656E747533FC
:1009150036302E636F6D007475686F633336302E15
:040925006E65740087
:1009B500E4FDFCC3ED9FEC9E50070DBD00010C80CE
:0109C500F23F
:0109C600220E
:10094C00E4FDFCC3ED9FEC9E5015E4FBFA0BBB00E1
:0F095C00010AEB647D4A70F50DBD00010C80E4CB
:01096B002269
:10098C008F0B8E0A8D098C08780874FF1208E7EC1F
:06099C004D4E4F70F322E6
:0309A20012088EAA
:1009A500D2A27F037E001209B5C2A27F320209B529
:10088E00EF1392B0EFC3131392B1EF1313543F1340
:10089E0092B2EF131313541F1392B3EFC4540F13EA
:1008AE0092B4EFC41354071392B5EFC41313540349
:0E08BE001392B6EFC413131354011392B72212
:1009C700AB07EBC4540FFF1209A2AF0312088E0244
:0209D70009A570
:0C09E5007F011209C77F0A7E000209B5DD
:10080000E4FF12088E7F147E007D007C0012098CAC
:10081000C2A0C2A17F031209A27F057E0012094C6B
:100820001209A57F647E001209B51209A57F021284
:10083000088E1209A57F381209C77F0C1209C77FDD
:09084000061209C77F010209C775
:10096C00ED7006EF2480FA8004EF24C0FA7FE87E55
:10097C00031209B5AF021209C77F327E000209B516
:0809F100D2A01209C7C2A02226
:100929008B088A09890AAB08AA09A90A1208CCFF07
:1009390060101209F17401250AF50AE43509F5096F
:0309490080E42225
:100849001208007F147E0012094C7BFF7A09790592
:100859001209297FE87E0312094C1209E5E4FDFF1C
:1008690012096C7BFF7A09790E1209297FE87E0348
:1008790012094C7D01E4FF12096C7BFF7A09791C8E
:0508890012092980FEA8
:1008CC00BB010689828A83E0225002E722BBFE022A
:0908DC00E32289828A83E493225D
:1008E5007401FF3395E0FEFDFC080808E6CF2FF6FE
:1008F50018E6CE3EF618E6CD3DF618E6CC3CF622D7
:00000001FF
