:030000000209E012
:0C09E000787FE4F6D8FD75810B0208005A
:1009530048656C6C6F00484F2056414E204E48410D
:10096300540031395431303531303133004B545622
:03097300584C00DD
:1009BF00E4FDFCC3ED9FEC9E50070DBD00010C80C4
:0109CF00F235
:0109D0002204
:10097600E4FDFCC3ED9FEC9E5015E4FBFA0BBB00B7
:0F098600010AEB647D4A70F50DBD00010C80E4A1
:01099500223F
:100996008F0B8E0A8D098C08780874FF1208ECEC10
:0609A6004D4E4F70F322DC
:0309AC001208939B
:1009AF00D2A27F037E001209BFC2A27F320209BF0B
:10089300EF1392B0EFC3131392B1EF1313543F133B
:1008A30092B2EF131313541F1392B3EFC4540F13E5
:1008B30092B4EFC41354071392B5EFC41313540344
:0E08C3001392B6EFC413131354011392B7220D
:0F09D100AB077F001209ACAF031208930209AF06
:0C09EC007F011209D17F0A7E000209BFC2
:10084A00E4FF1208937F147E007D007C0012099653
:10085A00C2A0C2A17F031209AC7F057E00120976ED
:10086A001209AF7F647E001209BF1209AF7F02121C
:10087A0008931209AF7F381209D17F0C1209D17F70
:09088A00061209D17F010209D117
:06090A001209ECE4FDFF00
:10091000ED7006EF2480FA8004EF24C0FA7FE87EB1
:10092000031209BFAF021209D17F327E000209BF54
:0809F800D2A01209D1C2A02215
:100930008B088A09890AAB08AA09A90A1208D1FFFB
:1009400060101209F87401250AF50AE43509F50961
:0309500080E4221E
:1008000012084A7F147E001209767BFF7A09795319
:100810001209307FE87E0312097612090A7BFF7AFB
:100820000979591209307FE87E03120976E4FDFF49
:100830001209107BFF7A09796512093012090A7BC7
:0A084000FF7A09797012093080FE7A
:1008D100BB010689828A83E0225002E722BBFE0225
:0908E100E32289828A83E4932258
:1008EA007401FF3395E0FEFDFC080808E6CF2FF6F9
:1008FA0018E6CE3EF618E6CD3DF618E6CC3CF622D2
:00000001FF
