:10080000E4F508F509A291E4FE33FF701E0509E541
:100810000970020508646445087005F508750963E8
:10082000EF4E7007A291FE33FF80F5A290E4337083
:1008300016E509150970021508C3E508648094805F
:100840005005E4F508F509AE08AF097C007D0A12F1
:1008500008C98E0C8F0D7C007D0A1208B7C3E5090C
:100860009FF50BE5089EF50A750E00750F01D2B1D4
:10087000C2B0AF0BAE0A120954050FE50F700205A6
:100880000EC39464E50E6480948040E2750E00759A
:100890000F01C3E50F9464E50E6480948040030269
:1008A0000805D2B0C2B1AF0DAE0C120954050FE568
:0708B0000F70DF050E80DB75
:10095400EE705BEFB40A005055900964F8282873D0
:1009640002098202098702098C020991020996028E
:10097400099B0209A00209A50209AA0209AF75A0F0
:1009840040802B75A079802675A024802175A03025
:10099400801C75A019801775A012801275A00280A2
:1009A4000D75A0788008E4F5A0800375A01075A0EB
:0209B400FF2220
:030000000209B63C
:0C09B600787FE4F6D8FD75810F02080080
:1008B700EF8DF0A4A8F0CF8CF0A428CE8DF0A42E55
:0208C700FE220F
:1008C900C2D5EC30E709B2D5E4C39DFDE49CFCEE4A
:1008D90030E715B2D5E4C39FFFE49EFE1208FFC3BB
:1008E900E49DFDE49CFC80031208FF30D507C3E4B6
:0608F9009FFFE49EFE22B9
:1008FF00BC000BBE0029EF8DF084FFADF022E4CCDD
:10090F00F875F008EF2FFFEE33FEEC33FCEE9DECA5
:10091F00984005FCEE9DFE0FD5F0E9E4CEFD22EDEB
:10092F00F8F5F0EE8420D21CFEADF075F008EF2F35
:10093F00FFED33FD4007985006D5F0F222C398FD26
:05094F000FD5F0EA22C3
:00000001FF
